:100000000C945D000C9485000C9485000C94850084
:100010000C9485000C9485000C9485000C9485004C
:100020000C9485000C9485000C9485000C9485003C
:100030000C9485000C9485000C9485000C9485002C
:100040000C9414040C9485000C9485000C94850089
:100050000C9485000C9485000C9485000C9485000C
:100060000C9485000C94850000000008000201003B
:100070000003040700000000000000000000000072
:10008000250028002B0000000000240027002A0083
:10009000040404040404040402020202020203032E
:1000A0000303030301020408102040800102040836
:1000B0001020010204081020BB0511241FBECFEF41
:1000C000D8E0DEBFCDBF11E0A0E0B1E0EEE7F0E1A7
:1000D00002C005900D92A233B107D9F721E0A2E347
:1000E000B1E001C01D92AF36B207E1F710E0CDE5F7
:1000F000D0E004C02197FE010E943708CC35D1071B
:10010000C9F70E945E040C943D080C94000090E036
:10011000FC01EC55FF4F249180579F4FFC018491C7
:10012000882399F090E0880F991FFC01EA57FF4F50
:10013000A591B491FC01E458FF4F859194918FB73C
:10014000F894EC91E22BEC938FBF089590E0FC01C2
:10015000E859FF4F2491FC01EC55FF4F3491FC010D
:10016000E057FF4FE491EE23C9F0222339F023300A
:1001700001F1A8F4213019F1223029F1F0E0EE0F5D
:10018000FF1FE458FF4FA591B4918FB7F894EC91FD
:10019000611126C030953E233C938FBF08952730D0
:1001A000A9F02830C9F0243049F7809180008F7D74
:1001B00003C0809180008F7780938000DFCF84B56B
:1001C0008F7784BDDBCF84B58F7DFBCF8091B0006E
:1001D0008F778093B000D2CF8091B0008F7DF9CF20
:1001E0003E2BDACF8E3008F08E508770806480937B
:1001F0007C0080917A00806480937A0080917A00FC
:1002000086FDFCCF809178009091790008953FB7EA
:10021000F8948091530190915401A0915501B091AF
:10022000560126B5A89B05C02F3F19F00196A11DC8
:10023000B11D3FBFBA2FA92F982F8827BC01CD0130
:10024000620F711D811D911D42E0660F771F881F8F
:10025000991F4A95D1F708958F929F92AF92BF92BE
:10026000CF92DF92EF92FF924B015C010E94070157
:100270006B017C010E9407016C197D098E099F09A1
:10028000683E734081059105A8F321E0821A910828
:10029000A108B10888EEC80E83E0D81EE11CF11C4D
:1002A00081149104A104B10429F7FF90EF90DF902D
:1002B000CF90BF90AF909F908F900895AF92BF92D4
:1002C000CF92DF92EF92FF920F931F93CF93DF9322
:1002D0006C017B018B01040F151FEB015E01AE1851
:1002E000BF08C017D10759F06991D601ED91FC9173
:1002F0000190F081E02DC6010995892B79F7C501A0
:10030000DF91CF911F910F91FF90EF90DF90CF90F1
:10031000BF90AF900895089590E080E00895FC01AB
:1003200001900020E9F73197AF01481B590BBC0140
:1003300087E591E00C945E018F929F92AF92BF92FD
:100340000F931F93CF93DF93CDB7DEB7A1970FB66F
:10035000F894DEBF0FBECDBF19A2423008F44AE0C8
:100360008E010F5D1F4F842E912CB12CA12CA50165
:1003700094010E941508E62FB901CA01EA30F4F48D
:10038000E05DD801EE938D01232B242B252B79F7EB
:1003900090E080E0109719F0CD010E948F01A196A6
:1003A0000FB6F894DEBF0FBECDBFDF91CF911F9186
:1003B0000F91BF90AF909F908F900895E95CE1CF2F
:1003C000CF93DF93EC0160E08E810E94A60061E094
:1003D0008E810E94A60060E08E810E94A6008BE8BC
:1003E00091E00197F1F7DF91CF910895CF92DF92DD
:1003F000EF92FF920F931F93CF93DF936C017C01D9
:1004000087E0E80EF11CD0E0C0E0062F10E0B80154
:100410000C2E02C0759567950A94E2F76170F7019A
:1004200081917F010E94A6002196C430D10579F701
:10043000C601DF91CF911F910F91FF90EF90DF9058
:10044000CF900C94E001CF92DF92EF92FF920F9346
:100450001F93CF93DF93EC01F62E642F8C810E94C3
:10046000A6008D818F3F19F060E00E94A6000F2D3D
:1004700010E08F8584FF25C06E0187E0C80ED11C77
:10048000F12CE12CB8010E2C02C0759567950A94E9
:10049000E2F76170F60181916F010E94A600FFEF03
:1004A000EF1AFF0A88E0E816F10461F7CE01DF9148
:1004B000CF911F910F91FF90EF90DF90CF900C9410
:1004C000E001B80184E0759567958A95E1F7CE0162
:1004D0000E94F6016F2DCE01DF91CF911F910F91F8
:1004E000FF90EF90DF90CF900C94F60140E0682FE2
:1004F00087E591E00C94230281E00E9476028BE371
:100500009FE10197F1F70895CF93DF93823029F4AB
:100510009091660198609093660180936A011092B1
:100520006B0180E480936C0180E180936D0180E534
:1005300080936E0180915B010E94870080915C0135
:100540008F3F11F00E94870080915D010E9487001B
:10055000C7E5D1E09E01275531408091660184FDB9
:100560000AC084E090E02196281739073CF48E8178
:100570000E948700EFCF88E090E0F5CF8BE39DE00D
:100580000197F1F760E080915B010E94A60060E0B6
:1005900080915D010E94A60080915C018F3F19F05F
:1005A00060E00E94A6008091660184FD34C063E093
:1005B00087E591E00E94F601CBE4D6E4CE010197F5
:1005C000F1F763E087E591E00E94F6012197F1F7EA
:1005D00063E087E591E00E94F60183E592E00197F0
:1005E000F1F762E087E591E00E94F60180916601F3
:1005F00080620E94760284E0809367018CE00E9412
:1006000076020E947C0282E08093680186E0DF919E
:10061000CF910C94760280620E9476028BE496E47D
:100620000197F1F78091660180620E94760283E56E
:1006300092E00197F1F78091660180620E94760254
:10064000D5CF90916A01691710F06FEF690FE62F0F
:10065000F0E0E95AFE4F9489890F80680C94760285
:1006600041E00E94230281E090E008954F925F9262
:100670006F927F928F929F92AF92BF92CF92DF92B2
:10068000EF92FF920F931F93CF936B017C01742E17
:10069000AC019B010E941008882399F08CE091E046
:1006A000CF911F910F91FF90EF90DF90CF90BF906F
:1006B000AF909F908F907F906F905F904F900C9431
:1006C0008F0146015701E894B7F82FEF3FEF4FE74E
:1006D0005FE7C501B4010E94100881110DC02FEF22
:1006E0003FEF4FE75FE7C501B4010E9446061816C9
:1006F0001CF480E191E0D4CF2FEF3FEF4FE75FE4B0
:10070000C701B6010E949E0718161CF484E191E00F
:10071000C7CF2FEF3FEF4FE75FECC701B6010E9455
:10072000460687FDF3CF20E030E0A901C701B601FE
:100730000E94460610E000E087FF0CC041E06DE239
:1007400087E591E00E942302F7FAF094F7F8F0941D
:1007500001E010E0C0E060E070E080E09FE37C1624
:1007600041F020E030E040E251E40E944B06CF5FD0
:10077000F6CFA70196010E94DA054B015C010E94A9
:10078000BD062B013C014AE00E949C01080F191F85
:10079000CC23C9F1C301B2010E94EC069B01AC015C
:1007A000C501B4010E94D9054B015C0141E06EE234
:1007B00087E591E00E9423020F5F1F4FC15018F19F
:1007C00020E030E040E251E4C501B4010E94A307FB
:1007D0002B013C010E94BD064B01B12CA12C4AE02B
:1007E000C501B4010E949C01080F191FC501B40185
:1007F0000E94EC069B01AC01C301B2010E94D90525
:100800004B015C01DBCFC801CF911F910F91FF908D
:10081000EF90DF90CF90BF90AF909F908F907F90A0
:100820006F905F904F9008951F920F920FB60F92A6
:1008300011242F933F938F939F93AF93BF938091F6
:100840004F0190915001A0915101B091520130910E
:100850004E0123E0230F2D3758F50196A11DB11D40
:1008600020934E0180934F0190935001A09351012A
:10087000B09352018091530190915401A091550180
:10088000B09156010196A11DB11D80935301909323
:100890005401A0935501B0935601BF91AF919F9120
:1008A0008F913F912F910F900FBE0F901F90189531
:1008B00026E8230F0296A11DB11DD2CF789484B5EE
:1008C000826084BD84B5816084BD85B5826085BD4C
:1008D00085B5816085BD80916E00816080936E00DA
:1008E00010928100809181008260809381008091CC
:1008F000810081608093810080918000816080937D
:1009000080008091B10084608093B1008091B0003C
:1009100081608093B00080917A00846080937A0037
:1009200080917A00826080937A0080917A00816061
:1009300080937A0080917A00806880937A00109288
:10094000C10082E00E948402C8E4D1E006E411E024
:1009500090E0A92E90E0B92E8EE00E94F20086E38E
:10096000E82E81E0F82E8EE00E94F200F7018193DC
:1009700091937F016EE170E080E090E00E942C0195
:10098000FAE4EF16F1E0FF0671F7E6E3F1E0DF01CC
:100990008081918112962D913C91139728173907E8
:1009A00034F43183208313969C938E93129712967E
:1009B000CA17DB0769F7329681E0E834F80739F7A0
:1009C000EAE3F1E0C12CD12C760181919191092EBD
:1009D000000CAA0BBB0BC80ED91EEA1EFB1E0E177D
:1009E0001F0799F7C0923201D0923301E09234018F
:1009F000F09235010E947C0260E080E00E942103B9
:100A000088E191E00E948F0161E080E00E94210373
:100A1000C701B6010E94EC0620E030E040EA50E455
:100A20000E94A30720E030E040E85AE30E94A307B9
:100A300020E030E040EC50E40E944B0626E636E62B
:100A400046EB50EC0E94A30722E538EB4AEA51E45A
:100A50000E94DA0542E00E9436036CE271E080E019
:100A600090E00E942C018FE00E94F2008FE00E9433
:100A7000F200BC01990F880B990B0E94EE062AE048
:100A800038E240EA5BE30E94A3076B017C0125E8A2
:100A90003BE645E053E40E94A307A70196010E94AC
:100AA000A307A70196010E94A3072B013C0129E29D
:100AB0003CED4FE753E4C701B6010E94A307A7012D
:100AC00096010E94A3079B01AC01C301B2010E94E1
:100AD000D9052B013C0126EF38E546E554E4C70172
:100AE000B6010E94A3079B01AC01C301B2010E94A1
:100AF000DA0521EE3AEE4EE454E40E94D905609303
:100B00004A0170934B0180934C0190934D010E94D8
:100B10007C0260E080E00E94210380E291E00E947C
:100B20008F0161E080E00E94210360914A01709191
:100B30004B0180914C0190914D0142E00E9436039F
:100B400061E088E00E9421038CE291E00E948F0125
:100B500068EC70E080E090E00E942C016AE070E0B8
:100B600080E090E00E942C01A114B10409F4F4CEBD
:100B70000E940000F1CEE7E5F1E01382128284E0EA
:100B800091E0918380838CE084838FEF85838BE079
:100B9000868385E0878384E0808783E0818782E0A5
:100BA00082871386148615861686178681E00C9434
:100BB00084025058BB27AA270E94F1050C946407B1
:100BC0000E94560738F00E945D0720F039F49F3FDD
:100BD00019F426F40C9453070EF4E095E7FB0C94FB
:100BE0004D07E92F0E94750758F3BA17620773077C
:100BF0008407950720F079F4A6F50C9497070EF476
:100C0000E0950B2EBA2FA02D0B01B90190010C011C
:100C1000CA01A0011124FF27591B99F0593F50F434
:100C2000503E68F11A16F040A22F232F342F44278C
:100C3000585FF3CF469537952795A795F040539584
:100C4000C9F77EF41F16BA0B620B730B840BBAF054
:100C50009150A1F0FF0FBB1F661F771F881FC2F7BF
:100C60000EC0BA0F621F731F841F48F487957795D3
:100C70006795B795F7959E3F08F0B0CF9395880F8D
:100C800008F09927EE0F9795879508950E942907F8
:100C900008F481E008950E945F060C9464070E94A6
:100CA0005D0758F00E94560740F029F45F3F29F095
:100CB0000C944D0751110C9498070C9453070E9403
:100CC000750768F39923B1F3552391F3951B550BE1
:100CD000BB27AA2762177307840738F09F5F5F4F0F
:100CE000220F331F441FAA1FA9F335D00E2E3AF04E
:100CF000E0E832D091505040E695001CCAF72BD066
:100D0000FE2F29D0660F771F881FBB1F26173707B6
:100D10004807AB07B0E809F0BB0B802DBF01FF27E8
:100D200093585F4F3AF09E3F510578F00C944D0771
:100D30000C9498075F3FE4F3983ED4F3869577953B
:100D40006795B795F7959F5FC9F7880F911D9695A1
:100D5000879597F90895E1E0660F771F881FBB1FFD
:100D6000621773078407BA0720F0621B730B840BAA
:100D7000BA0BEE1F88F7E09508950E947D0788F072
:100D80009F5798F0B92F9927B751B0F0E1F0660F4F
:100D9000771F881F991F1AF0BA95C9F714C0B13090
:100DA00091F00E949707B1E008950C949707672F80
:100DB000782F8827B85F39F0B93FCCF386957795BF
:100DC0006795B395D9F73EF49095809570956195A8
:100DD0007F4F8F4F9F4F0895E89409C097FB3EF4D3
:100DE00090958095709561957F4F8F4F9F4F992378
:100DF000A9F0F92F96E9BB279395F69587957795F6
:100E00006795B795F111F8CFFAF4BB0F11F460FFB5
:100E10001BC06F5F7F4F8F4F9F4F16C0882311F00D
:100E200096E911C0772321F09EE8872F762F05C021
:100E3000662371F096E8862F70E060E02AF09A95BC
:100E4000660F771F881FDAF7880F9695879597F9B1
:100E50000895990F0008550FAA0BE0E8FEEF16164B
:100E60001706E807F907C0F012161306E407F5079E
:100E700098F0621B730B840B950B39F40A2661F012
:100E8000232B242B252B21F408950A2609F4A140B5
:100E9000A6958FEF811D811D089597F99F6780E8C2
:100EA00070E060E008959FEF80EC089500240A94BC
:100EB0001616170618060906089500240A94121635
:100EC0001306140605060895092E0394000C11F468
:100ED000882352F0BB0F40F4BF2B11F460FF04C015
:100EE0006F5F7F4F8F4F9F4F089557FD9058440F6E
:100EF000551F59F05F3F71F04795880F97FB991F79
:100F000061F09F3F79F08795089512161306140635
:100F1000551FF2CF4695F1DF08C0161617061806C2
:100F2000991FF1CF86957105610508940895E8949D
:100F3000BB2766277727CB0197F908950E942907D9
:100F400008F48FEF08950E94B6070C9464070E947E
:100F5000560738F00E945D0720F0952311F00C949D
:100F60004D070C94530711240C9498070E947507A1
:100F700070F3959FC1F3950F50E0551F629FF001EC
:100F8000729FBB27F00DB11D639FAA27F00DB11D05
:100F9000AA1F649F6627B00DA11D661F829F22278E
:100FA000B00DA11D621F739FB00DA11D621F839F15
:100FB000A00D611D221F749F3327A00D611D231FEB
:100FC000849F600D211D822F762F6A2F11249F5739
:100FD00050409AF0F1F088234AF0EE0FFF1FBB1F3C
:100FE000661F771F881F91505040A9F79E3F5105FB
:100FF00080F00C944D070C9498075F3FE4F3983E03
:10100000D4F3869577956795B795F795E7959F5FA4
:10101000C1F7FE2B880F911D9695879597F9089536
:101020000E942907880B990B0895A1E21A2EAA1B8A
:10103000BB1BFD010DC0AA1FBB1FEE1FFF1FA21788
:10104000B307E407F50720F0A21BB30BE40BF50B85
:10105000661F771F881F991F1A9469F7609570950E
:10106000809590959B01AC01BD01CF010895EE0FD5
:0E107000FF1F0590F491E02D0994F894FFCF36
:10107E000000000030035E018C018B016E616E007A
:10108E00696E66006F76660070482056616C3A0095
:10109E005475726269646974793A2000204E545511
:0210AE00000040
:00000001FF
