:100000000C945D000C9485000C9485000C94850084
:100010000C9485000C9485000C9485000C9485004C
:100020000C9485000C9485000C9485000C941C069F
:100030000C9485000C9485000C9485000C9485002C
:100040000C947A050C9485000C94EA050C94C40574
:100050000C9485000C9485000C9485000C9485000C
:100060000C9485000C94850000000008000201003B
:100070000003040700000000000000000000000072
:10008000250028002B0000000000240027002A0083
:10009000040404040404040402020202020203032E
:1000A0000303030301020408102040800102040836
:1000B0001020010204081020D80611241FBECFEF23
:1000C000D8E0DEBFCDBF11E0A0E0B1E0EAE9F9E1A0
:1000D00002C005900D92A23CB107D9F722E0A2EC34
:1000E000B1E001C01D92AB3CB207E1F710E0CDE5F5
:1000F000D0E004C02197FE010E94C50CCC35D10789
:10010000C9F70E9462070C94CB0C0C94000090E09D
:10011000FC01EC55FF4F249180579F4FFC018491C7
:10012000882399F090E0880F991FFC01EA57FF4F50
:10013000A591B491FC01E458FF4F859194918FB73C
:10014000F894EC91E22BEC938FBF0895CF92DF925D
:10015000EF92FF92DC01A03282E0B807D4F5A53B14
:10016000B10514F0A4EBB0E04091B10228E830E012
:10017000241B310947FD3395220F331F220F331FF4
:100180006901330FEE08FF084091B20228E532E022
:10019000241B310947FD3395220F331F220F331FD4
:1001A000032E000C440B550B2C193D094E095F0919
:1001B000B7FF02C0B0E0A0E00E94440A24EB30E0A8
:1001C00040E050E00E941A0AC20ED31EE41EF51E43
:1001D000D601E091B002EC3080F52091B10288E8C0
:1001E00090E0821B910927FD9395880F991F880F36
:1001F000991FA817B90784F02091B20288E592E010
:10020000821B910927FD9395880F991F880F991FCD
:10021000A817B9070CF4CD010297880F991F4FB7A3
:10022000F8942E2F30E0F901EE0FFF1FE20FF31FBD
:10023000E557FD4F928381834FBFFF90EF90DF9092
:10024000CF90089590E0FC01E859FF4F2491FC0104
:10025000EC55FF4F3491FC01E057FF4FE491EE2342
:10026000C9F0222339F0233001F1A8F4213019F12B
:10027000223029F1F0E0EE0FFF1FE458FF4FA59167
:10028000B4918FB7F894EC91611126C030953E235C
:100290003C938FBF08952730A9F02830C9F024304F
:1002A00049F7809180008F7D03C0809180008F7717
:1002B00080938000DFCF84B58F7784BDDBCF84B59A
:1002C0008F7DFBCF8091B0008F778093B000D2CF2D
:1002D0008091B0008F7DF9CF3E2BDACF8064809380
:1002E0007C0080917A00806480937A0080917A000B
:1002F00086FDFCCF809178009091790008953FB7FA
:10030000F8948091EA019091EB01A091EC01B091F9
:10031000ED0126B5A89B05C02F3F19F00196A11D40
:10032000B11D3FBFBA2FA92F982F8827BC01CD013F
:10033000620F711D811D911D42E0660F771F881F9E
:10034000991F4A95D1F708958F929F92AF92BF92CD
:10035000CF92DF92EF92FF924B015C010E947F01EE
:100360006B017C010E947F016C197D098E099F0938
:10037000683E734081059105A8F321E0821A910837
:10038000A108B10888EEC80E83E0D81EE11CF11C5C
:1003900081149104A104B10429F7FF90EF90DF903C
:1003A000CF90BF90AF909F908F900895AF92BF92E3
:1003B000CF92DF92EF92FF920F931F93CF93DF9331
:1003C0006C017B018B01040F151FEB015E01AE1860
:1003D000BF08C017D10759F06991D601ED91FC9182
:1003E0000190F081E02DC6010995892B79F7C501AF
:1003F000DF91CF911F910F91FF90EF90DF90CF9001
:10040000BF90AF900895FC01538D448D252F30E0AF
:10041000842F90E0821B930B541710F0CF96089511
:1004200001970895FC01918D828D981761F0A28D3E
:10043000AE0FBF2FB11D5D968C91928D9F5F9F7304
:10044000928F90E008958FEF9FEF0895FC01918DBA
:10045000828D981731F0828DE80FF11D858D90E027
:1004600008958FEF9FEF0895FC01918D228D892FC4
:1004700090E0805C9F4F821B91098F7399270895AC
:100480008EEE91E00E94340221E0892B09F420E0F5
:10049000822F089580E090E0892B29F00E9440028D
:1004A00081110C9400000895FC01A48DA80FB92FB0
:1004B000B11DA35ABF4F2C91848D90E001968F738C
:1004C0009927848FA689B7892C93A089B1898C91AB
:1004D000837080648C93938D848D981306C00288FA
:1004E000F389E02D80818F7D80830895EF92FF92C4
:1004F0000F931F93CF93DF93EC0181E0888F9B8D47
:100500008C8D98131AC0E889F989808185FF15C000
:100510009FB7F894EE89FF896083E889F989808123
:100520008370806480839FBF81E090E0DF91CF91F2
:100530001F910F91FF90EF900895F62E0B8D10E014
:100540000F5F1F4F0F731127E02E8C8D8E110CC083
:100550000FB607FCFACFE889F989808185FFF5CFCE
:10056000CE010E945402F1CFEB8DEC0FFD2FF11D57
:10057000E35AFF4FF0829FB7F8940B8FEA89FB890B
:1005800080818062CFCFCF93DF93EC01888D882369
:10059000B9F0AA89BB89E889F9898C9185FD03C0E6
:1005A000808186FD0DC00FB607FCF7CF8C9185FFCB
:1005B000F2CF808185FFEDCFCE010E945402E9CFBA
:1005C000DF91CF910895089590E080E00895FC01B7
:1005D00001900020E9F73197AF01481B590BBC018E
:1005E00083EB92E00C94D6018F929F92AF92BF92D0
:1005F0000F931F93CF93DF93CDB7DEB7A1970FB6BD
:10060000F894DEBF0FBECDBF19A2423008F44AE015
:100610008E010F5D1F4F842E912CB12CA12CA501B2
:1006200094010E944C0AE62FB901CA01EA30F4F4A1
:10063000E05DD801EE938D01232B242B252B79F738
:1006400090E080E0109719F0CD010E94E702A1969A
:100650000FB6F894DEBF0FBECDBFDF91CF911F91D3
:100660000F91BF90AF909F908F900895E95CE1CF7C
:10067000CF93DF930E94E702EC018EE191E00E94AC
:10068000E7028C0F9D1FDF91CF910895CF93DF93E9
:10069000EC0160E08E810E94220161E08E810E9467
:1006A000220160E08E810E9422018BE891E0019797
:1006B000F1F7DF91CF910895CF92DF92EF92FF9201
:1006C0000F931F93CF93DF936C017C0187E0E80EBB
:1006D000F11CD0E0C0E0062F10E0B8010C2E02C0E3
:1006E000759567950A94E2F76170F70181917F0132
:1006F0000E9422012196C430D10579F7C601DF910D
:10070000CF911F910F91FF90EF90DF90CF900C94BD
:100710004603CF92DF92EF92FF920F931F93CF93F6
:10072000DF93EC01F62E642F8C810E9422018D81D3
:100730008F3F19F060E00E9422010F2D10E08F859D
:1007400084FF25C06E0187E0C80ED11CF12CE12C7E
:10075000B8010E2C02C0759567950A94E2F7617096
:10076000F60181916F010E942201FFEFEF1AFF0A4B
:1007700088E0E816F10461F7CE01DF91CF911F9177
:100780000F91FF90EF90DF90CF900C944603B8014B
:1007900084E0759567958A95E1F7CE010E945C0328
:1007A0006F2DCE01DF91CF911F910F91FF90EF90B0
:1007B000DF90CF900C945C0340E0682F83EB92E0D5
:1007C0000C94890381E00E94DC038BE39FE1019795
:1007D000F1F70895CF93DF93823029F49091C2020C
:1007E00098609093C2028093C6021092C70280E480
:1007F0008093C80280E18093C90280E58093CA0299
:100800008091B7020E9487008091B8028F3F11F05B
:100810000E9487008091B9020E948700C3EBD2E05A
:100820009E01235B32408091C20284FD0AC084E0B5
:1008300090E02196281739073CF48E810E948700AA
:10084000EFCF88E090E0F5CF8BE39DE00197F1F7E3
:1008500060E08091B7020E94220160E08091B902BD
:100860000E9422018091B8028F3F19F060E00E943F
:1008700022018091C20284FD34C063E083EB92E0E8
:100880000E945C03CBE4D6E4CE010197F1F763E06C
:1008900083EB92E00E945C032197F1F763E083EB26
:1008A00092E00E945C0383E592E00197F1F762E039
:1008B00083EB92E00E945C038091C20280620E94FE
:1008C000DC0384E08093C3028CE00E94DC030E947E
:1008D000E20382E08093C40286E0DF91CF910C9422
:1008E000DC0380620E94DC038BE496E40197F1F75D
:1008F0008091C20280620E94DC0383E592E001974E
:10090000F1F78091C20280620E94DC03D5CF909102
:10091000C602691710F06FEF690FE62FF0E0ED5493
:10092000FD4F9489890F80680C94DC0341E00E949C
:10093000890381E090E008954F925F926F927F92D9
:100940008F929F92AF92BF92CF92DF92EF92FF92DF
:100950000F931F93CF936B017C01742EAC019B010D
:100960000E94B40C882399F081E291E0CF911F910D
:100970000F91FF90EF90DF90CF90BF90AF909F903E
:100980008F907F906F905F904F900C94E70246019C
:100990005701E894B7F82FEF3FEF4FE75FE7C50146
:1009A000B4010E94B40C81110DC02FEF3FEF4FE74F
:1009B0005FE7C501B4010E94EA0A18161CF485E23B
:1009C00091E0D4CF2FEF3FEF4FE75FE4C701B601CF
:1009D0000E94420C18161CF489E291E0C7CF2FEF59
:1009E0003FEF4FE75FECC701B6010E94EA0A87FDBF
:1009F000F3CF20E030E0A901C701B6010E94EA0A66
:100A000010E000E087FF0CC041E06DE283EB92E074
:100A10000E948903F7FAF094F7F8F09401E010E0EF
:100A2000C0E060E070E080E09FE37C1641F020E0F1
:100A300030E040E251E40E94EF0ACF5FF6CFA70119
:100A400096010E947E0A4B015C010E94610B2B0102
:100A50003C014AE00E94F402080F191FCC23C9F19F
:100A6000C301B2010E94900B9B01AC01C501B4010E
:100A70000E947D0A4B015C0141E06EE283EB92E053
:100A80000E9489030F5F1F4FC15018F120E030E032
:100A900040E251E4C501B4010E94470C2B013C0126
:100AA0000E94610B4B01B12CA12C4AE0C501B4019D
:100AB0000E94F402080F191FC501B4010E94900B97
:100AC0009B01AC01C301B2010E947D0A4B015C0194
:100AD000DBCFC801CF911F910F91FF90EF90DF9076
:100AE000CF90BF90AF909F908F907F906F905F90CE
:100AF0004F9008951F920F920FB60F9211242F93CB
:100B00003F938F939F93AF93BF938091E601909112
:100B1000E701A091E801B091E9013091E50123E0FE
:100B2000230F2D3758F50196A11DB11D2093E50126
:100B30008093E6019093E701A093E801B093E90167
:100B40008091EA019091EB01A091EC01B091ED014F
:100B50000196A11DB11D8093EA019093EB01A09332
:100B6000EC01B093ED01BF91AF919F918F913F91B7
:100B70002F910F900FBE0F901F90189526E8230F0E
:100B80000296A11DB11DD2CF1F920F920FB60F92E8
:100B900011242F933F934F935F936F937F938F9382
:100BA0009F93AF93BF93EF93FF938EEE91E00E94DC
:100BB0005402FF91EF91BF91AF919F918F917F91DF
:100BC0006F915F914F913F912F910F900FBE0F90BA
:100BD0001F9018951F920F920FB60F9211242F930A
:100BE0008F939F93EF93FF93E091FE01F091FF01AC
:100BF0008081E0910402F091050282FD1BC090818A
:100C0000809107028F5F8F7320910802821741F055
:100C1000E0910702F0E0E251FE4F958F80930702CA
:100C2000FF91EF919F918F912F910F900FBE0F9099
:100C30001F9018958081F4CF1F920F920FB60F92DC
:100C400011242F933F934F935F936F937F938F93D1
:100C50009F93AF93BF93CF93DF93EF93FF938091D5
:100C6000C201C091AF02D0E087FF24C0109285007E
:100C7000109284008091C2018F5F8093C2018091A5
:100C8000C201082E000C990B8C179D0724F480914B
:100C9000C2018C30C4F1809184009091850004964B
:100CA00080349C4908F47AC080918400909185003A
:100CB000049676C08091C201082E000C990B8C1707
:100CC0009D07C4F6E091C2018E2FEE0F990BFC0137
:100CD000EE0FFF1FE80FF91FE557FD4F808186FFDC
:100CE000C9CFE091C2018E2FEE0F990BFC01EE0FE0
:100CF000FF1FE80FF91FE557FD4F808160E08F73FC
:100D00000E942201B7CF2091840030918500E091AC
:100D1000C2018E2FEE0F990BFC01EE0FFF1FE80FA3
:100D2000F91FE557FD4F81819281820F931F9093A8
:100D3000890080938800E091C2018E2FEE0F990BFD
:100D4000FC01EE0FFF1FE80FF91FE557FD4F8081F3
:100D500086FF11C0E091C2018E2FEE0F990BFC01AE
:100D6000EE0FFF1FE80FF91FE557FD4F808161E08F
:100D70008F730E942201FF91EF91DF91CF91BF917C
:100D8000AF919F918F917F916F915F914F913F9123
:100D90002F910F900FBE0F901F90189580E49CE943
:100DA00090938900809388008FEF8093C201E3CFF6
:100DB000CF931092F1011092F00188EE93E0A0E041
:100DC000B0E08093F2019093F301A093F401B0930B
:100DD000F50184E091E09093EF018093EE0185ECC2
:100DE00090E09093FB018093FA0184EC90E0909363
:100DF000FD018093FC0180EC90E09093FF018093D3
:100E0000FE0181EC90E0909301028093000282EC5D
:100E100090E0909303028093020286EC90E090931E
:100E200005028093040210920702109208021092A9
:100E3000090210920A021092B6021092B50286E1DF
:100E400091E09093B4028093B3028CE08093B70258
:100E5000CFEFC093B8028BE08093B90285E0809316
:100E6000BA0284E08093BB0283E08093BC0282E0FC
:100E70008093BD021092BE021092BF021092C00277
:100E80001092C1021092C20281E00E94EA03809196
:100E9000AF028C30A0F491E0980F9093AF02809352
:100EA000B00290E0FC01EE0FFF1FE80FF91FE557BD
:100EB000FD4F88EB9BE092838183CF910895C0938F
:100EC000B002FBCF789484B5826084BD84B5816024
:100ED00084BD85B5826085BD85B5816085BD809105
:100EE0006E00816080936E0010928100809181007D
:100EF0008260809381008091810081608093810075
:100F0000809180008160809380008091B100846036
:100F10008093B1008091B00081608093B000809197
:100F20007A00846080937A0080917A008260809356
:100F30007A0080917A00816080937A0080917A00B3
:100F4000806880937A001092C100E091FE01F091D8
:100F5000FF0182E08083E091FA01F091FB011082B1
:100F6000E091FC01F091FD018FEC8083109206026C
:100F7000E0910202F091030286E08083E09100029A
:100F8000F0910102808180618083E0910002F09104
:100F90000102808188608083E0910002F09101026B
:100FA000808180688083E0910002F091010280815D
:100FB0008F7D808382E00E94EA038091B0028C30B2
:100FC00008F050C089E00E9487008091B002282F6D
:100FD00030E0F901EE0FFF1FE20FF31FE557FD4F61
:100FE0009081907C996090831092B1021092B2022D
:100FF0002CE0622F0E94B90C829FB001112430E0D6
:1010000020E0AB01420F531FFA01EE0FFF1FE40F68
:10101000F51FE557FD4F908196FD16C02F5F3F4F9E
:101020002C30310571F781110FC01092800082E0E1
:10103000809381001092850010928400B19A809173
:101040006F00826080936F00E091B0028E2F90E07D
:10105000FC01EE0FFF1FE80FF91FE557FD4F8081E0
:101060008064808399ED292E91E0392E27ED822E20
:1010700021E0922EC0E0D0E00AE510E034EBA32E90
:10108000B12C87ECE82E81E0F82E80E00E946E0102
:10109000F701819391937F016AE070E080E090E036
:1010A0000E94A401FBEDEF16F1E0FF0671F7E7ECFB
:1010B000F1E0DF018081918112962D913C9113978F
:1010C0002817390734F43183208313969C938E9329
:1010D000129712962A163B0669F7329621E0E93DEF
:1010E000F20739F7EBECF1E0C12CD12C76018191BC
:1010F0009191092E000CAA0BBB0BC80ED91EEA1E3B
:10110000FB1E8E169F0699F7C092C301D092C401B0
:10111000E092C501F092C6010E94E20360E080E027
:101120000E9487048DE291E00E94E70261E085E081
:101130000E948704C701B6010E94900B20E030E0B6
:1011400040EA50E40E94470C20E030E040E85AE3D7
:101150000E94470C20E030E040EC50E40E94EF0A8F
:1011600020E030E040E650E40E94470C42E00E945C
:101170009C0468EC70E080E090E00E94A40181E0B3
:101180000E946E01BC01990F880B990B0E94900B75
:101190002AE038E240EA5BE30E94470C0E94610BC0
:1011A0000E94900B6B017C0125E83BE645E053E48F
:1011B0000E94470CA70196010E94470CA7019601C7
:1011C0000E94470C2B013C0129E23CED4FE753E420
:1011D000C701B6010E94470CA70196010E94470C67
:1011E0009B01AC01C301B2010E947D0A2B013C01AD
:1011F00026EF38E546E554E4C701B6010E94470CE6
:101200009B01AC01C301B2010E947E0A21EE3AEEBD
:101210004EE454E40E947D0A0E94610B6093DB015E
:101220007093DC018093DD019093DE010E94E20364
:1012300060E080E00E9487048AE391E00E94E70278
:1012400061E083E00E9487046091DB017091DC0122
:101250008091DD019091DE014AE00E94F40261E09C
:1012600088E00E94870489E491E00E94E70268EC2C
:1012700070E080E090E00E94A4010E94E20360E040
:1012800080E00E9487048EE491E00E94E70261E022
:1012900080E00E94870482E00E946E01092E000C0B
:1012A000AA0BBB0B85369105A105B10508F077C0E7
:1012B0008FE591E00E94380368EC70E080E090E0F8
:1012C0000E94A40183E00E946E01BC01990F880B6B
:1012D000990B0E94920B20E030E04AEF53E40E9409
:1012E000470C20E030EC4FE754E40E94EF0A609393
:1012F000DF017093E0018093E1019093E20160E0EF
:1013000080E00E94870481EA91E00E94E70261E0A8
:1013100084E00E9487046091DF017091E001809178
:10132000E1019091E20142E00E949C0482EB91E095
:101330000E94E70268EC70E080E090E00E94A40167
:101340000E94E20360E084E00E94870484EB91E065
:101350000E94E70261E085E00E9487048CEB91E047
:101360000E94E7021093E4010093E301E090E3019F
:10137000F090E40125EBE216F10474F5C7010E9438
:10138000A60061E070E080E090E00E94A4018FEF91
:10139000E81AF80AF092E401E092E301E7CFAC0129
:1013A000BD0145565109610971094C325140610531
:1013B000710518F48EE691E07DCF81599140A10925
:1013C000B1098E359140A105B10518F48FE791E080
:1013D00071CF80E991E06ECFB092E401A092E30179
:1013E000E090E301F090E401EAE5EE16F1048CF000
:1013F000C7010E94A60061E070E080E090E00E94DA
:10140000A401F1E0EF1AF108F092E401E092E301A7
:10141000E7CF6AE070E080E090E00E94A4012097AE
:1014200009F42FCE0E944002882309F42ACE0E949C
:10143000000027CE052E97FB1EF400940E94310A6F
:1014400057FD07D00E944C0A07FC03D04EF40C94C1
:10145000310A50954095309521953F4F4F4F5F4F42
:10146000089590958095709561957F4F8F4F9F4F10
:1014700008950E946E0AA59F900DB49F900DA49FA1
:10148000800D911D11240895B7FF0C94390A0E9414
:10149000390A821B930B0895A1E21A2EAA1BBB1BCB
:1014A000FD010DC0AA1FBB1FEE1FFF1FA217B30730
:1014B000E407F50720F0A21BB30BE40BF50B661F46
:1014C000771F881F991F1A9469F76095709580950A
:1014D00090959B01AC01BD01CF010895A29FB00181
:1014E000B39FC001A39F700D811D1124911DB29F58
:1014F000700D811D1124911D08955058BB27AA27F6
:101500000E94950A0C94080C0E94FA0B38F00E9475
:10151000010C20F039F49F3F19F426F40C94F70BDA
:101520000EF4E095E7FB0C94F10BE92F0E94190CE7
:1015300058F3BA17620773078407950720F079F408
:10154000A6F50C943B0C0EF4E0950B2EBA2FA02DB3
:101550000B01B90190010C01CA01A0011124FF2760
:10156000591B99F0593F50F4503E68F11A16F0405B
:10157000A22F232F342F4427585FF3CF469537955A
:101580002795A795F0405395C9F77EF41F16BA0B1F
:10159000620B730B840BBAF09150A1F0FF0FBB1FCD
:1015A000661F771F881FC2F70EC0BA0F621F731F16
:1015B000841F48F4879577956795B795F7959E3F73
:1015C00008F0B0CF9395880F08F09927EE0F979504
:1015D000879508950E94CD0B08F481E008950E943C
:1015E000030B0C94080C0E94010C58F00E94FA0B9B
:1015F00040F029F45F3F29F00C94F10B51110C9449
:101600003C0C0C94F70B0E94190C68F39923B1F36E
:10161000552391F3951B550BBB27AA276217730718
:10162000840738F09F5F5F4F220F331F441FAA1FAC
:10163000A9F335D00E2E3AF0E0E832D09150504068
:10164000E695001CCAF72BD0FE2F29D0660F771F16
:10165000881FBB1F261737074807AB07B0E809F0FC
:10166000BB0B802DBF01FF2793585F4F3AF09E3F81
:10167000510578F00C94F10B0C943C0C5F3FE4F3B3
:10168000983ED4F3869577956795B795F7959F5FC4
:10169000C9F7880F911D9695879597F90895E1E010
:1016A000660F771F881FBB1F621773078407BA076F
:1016B00020F0621B730B840BBA0BEE1F88F7E095CA
:1016C00008950E94210C88F09F5798F0B92F992710
:1016D000B751B0F0E1F0660F771F881F991F1AF01D
:1016E000BA95C9F714C0B13091F00E943B0CB1E03B
:1016F00008950C943B0C672F782F8827B85F39F03A
:10170000B93FCCF3869577956795B395D9F73EF4B5
:1017100090958095709561957F4F8F4F9F4F08955D
:10172000E89409C097FB3EF490958095709561957B
:101730007F4F8F4F9F4F9923A9F0F92F96E9BB2731
:101740009395F695879577956795B795F111F8CFAD
:10175000FAF4BB0F11F460FF1BC06F5F7F4F8F4F18
:101760009F4F16C0882311F096E911C0772321F00E
:101770009EE8872F762F05C0662371F096E8862FA6
:1017800070E060E02AF09A95660F771F881FDAF7FD
:10179000880F9695879597F90895990F0008550F2A
:1017A000AA0BE0E8FEEF16161706E807F907C0F0E7
:1017B00012161306E407F50798F0621B730B840BEF
:1017C000950B39F40A2661F0232B242B252B21F4C9
:1017D00008950A2609F4A140A6958FEF811D811D69
:1017E000089597F99F6780E870E060E008959FEFA3
:1017F00080EC089500240A941616170618060906A8
:10180000089500240A941216130614060506089576
:10181000092E0394000C11F4882352F0BB0F40F4FE
:10182000BF2B11F460FF04C06F5F7F4F8F4F9F4F3E
:10183000089557FD9058440F551F59F05F3F71F0C0
:101840004795880F97FB991F61F09F3F79F0879527
:101850000895121613061406551FF2CF4695F1DFB0
:1018600008C0161617061806991FF1CF8695710540
:10187000610508940895E894BB2766277727CB0174
:1018800097F908950E94CD0B08F48FEF08950E94F8
:101890005A0C0C94080C0E94FA0B38F00E94010CB0
:1018A00020F0952311F00C94F10B0C94F70B1124FC
:1018B0000C943C0C0E94190C70F3959FC1F3950F8A
:1018C00050E0551F629FF001729FBB27F00DB11DC4
:1018D000639FAA27F00DB11DAA1F649F6627B00D54
:1018E000A11D661F829F2227B00DA11D621F739F3D
:1018F000B00DA11D621F839FA00D611D221F749F4B
:101900003327A00D611D231F849F600D211D822F91
:10191000762F6A2F11249F5750409AF0F1F08823B8
:101920004AF0EE0FFF1FBB1F661F771F881F9150E5
:101930005040A9F79E3F510580F00C94F10B0C9498
:101940003C0C5F3FE4F3983ED4F38695779567951A
:10195000B795F795E7959F5FC1F7FE2B880F911D0F
:101960009695879597F908950E94CD0B880B990B52
:101970000895991B79E004C0991F961708F0961BEB
:10198000881F7A95C9F780950895EE0FFF1F05907F
:0A199000F491E02D0994F894FFCFC4
:10199A00000000007602D6010302C30234021202DA
:1019AA002602000000009604D601E402E3020D0AB2
:1019BA00006E616E00696E66006F76660020704880
:1019CA002056616C7565203A200020205475726299
:1019DA006964697479203A2000204E545500202009
:1019EA005761746572204C6576656C203A20002038
:1019FA0020202020456D707479202020200020208E
:101A0A0020202020204C6F7720202020202000201A
:101A1A00202020204D656469756D2020202020003B
:101A2A0020202020202048696768202020202020AC
:101A3A0000202054656D7065726174757265203A74
:101A4A002000430046656564696E670053746172DD
:021A5A00740016
:00000001FF
